:100000000C9463000C948B000C948B000C948B006C
:100010000C948B000C948B000C948B000C948B0034
:100020000C948B000C948B000C948B000C948B0024
:100030000C948B000C948B000C948B000C948B0014
:100040000C94C1060C948B000C9431070C940B0794
:100050000C948B000C948B000C948B000C948B00F4
:100060000C948B000C948B006364696E6F707375D5
:1000700078585B000000000800020100000304073C
:100080000000000000000000000000002500280023
:100090002B0000000000240027002A0004040404B0
:1000A0000404040402020202020203030303030322
:1000B00001020408102040800102040810200102FF
:1000C00004081020FA0711241FBECFEFD8E0DEBFCE
:1000D000CDBF11E0A0E0B1E0E4EAF7E202C0059094
:1000E0000D92A634B107D9F722E0A6E4B1E001C031
:1000F0001D92A03DB207E1F710E0C3E6D0E004C0D6
:100100002197FE010E949F0CC236D107C9F70E94B9
:1001100035080C94D0130C94000090E0FC01E055DD
:10012000FF4F249184569F4FFC018491882399F0BE
:1001300090E0880F991FFC01EE56FF4FA591B491F6
:10014000FC01E857FF4F859194918FB7F894EC919B
:10015000E22BEC938FBF089590E0FC01EC58FF4F29
:100160002491FC01E055FF4F3491FC01E456FF4F10
:10017000E491EE23C9F0222339F0233001F1A8F4F1
:10018000213019F1223029F1F0E0EE0FFF1FE8577E
:10019000FF4FA591B4918FB7F894EC91611126C0EF
:1001A00030953E233C938FBF08952730A9F0283027
:1001B000C9F0243049F7809180008F7D03C0809181
:1001C00080008F7780938000DFCF84B58F7784BDE8
:1001D000DBCF84B58F7DFBCF8091B0008F7780938C
:1001E000B000D2CF8091B0008F7DF9CF3E2BDACF17
:1001F000AF92BF92CF92DF92EF92FF920F931F9335
:10020000CF93DF936C017B018B01040F151FEB0172
:100210005E01AE18BF08C017D10759F06991D60129
:10022000ED91FC910190F081E02DC6010995892B9B
:1002300079F7C501DF91CF911F910F91FF90EF905A
:10024000DF90CF90BF90AF900895FC01538D448D07
:10025000252F30E0842F90E0821B930B541710F071
:10026000CF96089501970895FC01918D828D98177E
:1002700061F0A28DAE0FBF2FB11D5D968C91928D56
:100280009F5F9F73928F90E008958FEF9FEF089587
:10029000FC01918D828D981731F0828DE80FF11D50
:1002A000858D90E008958FEF9FEF0895FC01918D6B
:1002B000228D892F90E0805C9F4F821B91098F7364
:1002C0009927089582E991E00E94560121E0892B47
:1002D00009F420E0822F089580E090E0892B29F036
:1002E0000E94620181110C9400000895FC01A48D0C
:1002F000A80FB92FB11DA35ABF4F2C91848D90E048
:1003000001968F739927848FA689B7892C93A0892A
:10031000B1898C91837080648C93938D848D9813B4
:1003200006C00288F389E02D80818F7D8083089547
:10033000EF92FF920F931F93CF93DF93EC0181E035
:10034000888F9B8D8C8D98131AC0E889F9898081DC
:1003500085FF15C09FB7F894EE89FF896083E8890F
:10036000F98980818370806480839FBF81E090E001
:10037000DF91CF911F910F91FF90EF900895F62E8E
:100380000B8D10E00F5F1F4F0F731127E02E8C8D28
:100390008E110CC00FB607FCFACFE889F98980816D
:1003A00085FFF5CFCE010E947601F1CFEB8DEC0FEA
:1003B000FD2FF11DE35AFF4FF0829FB7F8940B8F8A
:1003C000EA89FB8980818062CFCFCF93DF93EC01F4
:1003D000888D8823B9F0AA89BB89E889F9898C912D
:1003E00085FD03C0808186FD0DC00FB607FCF7CFE9
:1003F0008C9185FFF2CF808185FFEDCFCE010E94E9
:100400007601E9CFDF91CF910895CF92DF92EF92FD
:10041000FF92CF93DF93EC013FB7F894809189016D
:1004200090918A01A0918B01B0918C0126B5A89B77
:1004300005C02F3F19F00196A11DB11D3FBFBA2F76
:10044000A92F982F88276C017D01C20ED11CE11CB9
:10045000F11C42E0CC0CDD1CEE1CFF1C4A95D1F7D0
:1004600088A599A5AAA5BBA5B701A601481B590B4C
:100470006A0B7B0B8B819C81AD81BE81481759072C
:100480006A077B0748F188899989AA89BB892A81EB
:100490002223F1F00196A11DB11D888B998BAA8BA7
:1004A000BB8B488959896A897B89E881F9810484F1
:1004B000F585E02DCE010995C8A6D9A6EAA6FBA62A
:1004C00081E0DF91CF91FF90EF90DF90CF90089582
:1004D0000197A109B109E1CF80E0F3CFCF93DF937A
:1004E000FC012781222329F1EC0180850E948D00E7
:1004F00089850E948D008F81843011F0883099F4B5
:100500008A850E948D008B850E948D008FA58F3F6C
:1005100081F00E948D006EA581E068278FA5DF9194
:10052000CF910C94AC00833011F0863079F78A8536
:10053000EBCFDF91CF910895CF93DF93FC0127811B
:100540002223A1F0EC010190F081E02D0284F385DB
:10055000E02D60E009958FA58F3F41F00E948D004E
:100560006EA58FA5DF91CF910C94AC00DF91CF9158
:100570000895DC01ED91FC91228533854770552764
:1005800066277727415051096109710947305105A4
:100590006105710560F4FA01E053FD4F0C949F0C66
:1005A000DA02DC02DE02E002E202E402E60261E0DC
:1005B000F901099465E0FCCF64E0FACF66E0F8CF7A
:1005C00062E0F6CF6AE0F4CF68E0F2CF69E0F0CF06
:1005D000CF93DF93EC01CB01BA0126E030E040E09D
:1005E00050E00E94800C623071058105910589F10F
:1005F0006CF46115710581059105D1F061307105CB
:1006000081059105F9F0DF91CF910895643071056E
:100610008105910561F124F1653071058105910530
:1006200091F7E881F9810284F385E02D66E006C048
:10063000E881F9810284F385E02D64E0CE01DF9149
:10064000CF910994E881F9810284F385E02D65E07A
:10065000F5CFE881F9810284F385E02D61E0EECFEA
:10066000E881F9810284F385E02D63E0E7CFE8813A
:10067000F9810284F385E02D62E0E0CFDC01ED91A9
:10068000FC910284F385E02D437055276627772778
:10069000423051056105710571F043305105610526
:1006A000710559F0413051056105710511F065E0A2
:1006B000099466E0FDCF6AE0FBCF69E0F9CFCF9304
:1006C000DF93EC01CB01BA0123E030E040E050E0E1
:1006D0000E94800C613071058105910599F06230AE
:1006E000710581059105A9F0672B682B692BC1F471
:1006F000E881F9810284F385E02D64E0CE01DF9189
:10070000CF910994E881F9810284F385E02D61E0BD
:10071000F5CFE881F9810284F385E02D62E0EECF28
:10072000DF91CF910895DC01ED91FC910284F38576
:10073000E02D437055276627772742305105610524
:10074000710571F0433051056105710559F0413073
:1007500051056105710511F062E0099463E0FDCF78
:1007600061E0FBCF60E0F9CFCF93DF93EC01E8814C
:10077000F9810284F385E02D8A8160E0811162E0D5
:10078000CE010995E881F9810284F385E02D8A8103
:1007900061E0811163E0CE0109958CA59DA58230B1
:1007A000910538F0880F991F880F991F05970197B9
:1007B000F1F7E881F9810284F385E02D8A8160E018
:1007C000811162E0CE01DF91CF910994CF93DF9345
:1007D000EC0120E030E0A901688D798D8A8D9B8D38
:1007E0000E94930E18162CF4E8A9F9A9DF91CF9175
:1007F0000994EAA9FBA9FACFCF92DF92EF92FF9278
:100800000F931F93CF93DF93DC011796CC91C430E5
:1008100039F0C83059F1C33019F0C63049F1C2E09F
:100820008C01085F1F4FF12CE12CC62ED12CD1E09A
:10083000F8016481C6010E2C02C0959587950A9433
:10084000E2F780FD6D270F5F1F4F80810E94AC0093
:10085000BFEFEB1AFB0AEC1658F3DF91CF911F9113
:100860000F91FF90EF90DF90CF900895C4E0D8CF24
:10087000C3E0D6CFDC011796EC911797E93008F06A
:1008800038C0F0E0EA5BFB4F0C949F0C4F0455041A
:100890005B046104670479046D0479047304ED91C9
:1008A000FC910684F785E02D0994ED91FC91008878
:1008B000F189E02DF9CFED91FC910288F389E02DCB
:1008C000F3CFED91FC910488F589E02DEDCFED910A
:1008D000FC910688F789E02DE7CFED91FC91008C23
:1008E000F18DE02DE1CFED91FC91028CF38DE02DA7
:1008F000DBCF08954F925F926F927F928F929F927B
:10090000AF92BF92CF92DF92EF92FF920F931F931D
:10091000CF93DF93EC01CC88DD88EE88FF8888894F
:100920009989AA89BB89C81AD90AEA0AFB0A688D7B
:10093000798D8A8D9B8D9B01AC010E94980E4B0195
:100940005C0168A179A18AA19BA19B01AC010E94D5
:10095000C80C9B01AC01C501B4010E94390D0E9475
:10096000AB0DC114D104E104F10409F0B6C062304A
:100970007105810591050CF0D0C01B821C821D827F
:100980001E82188E198E1A8E1B8E1CAA1DAA1EAAD4
:100990001FAAC12CD12C7601C701B601DF91CF91DE
:1009A0001F910F91FF90EF90DF90CF90BF90AF908D
:1009B0009F908F907F906F905F904F90089510164A
:1009C000110612061306B4F46C157D058E059F05FD
:1009D0001CF42A812111A1C09B01AC018827992711
:1009E000DC01821B930BA40BB50B8CAB9DABAEABA8
:1009F000BFAB93C0011511052105310509F48DC068
:100A00006C157D058E059F050CF087C08A818823B3
:100A100009F483C030952095109501951F4F2F4FF5
:100A20003F4F0CAB1DAB2EAB3FAB77C00115110593
:100A30002105310509F471C08824992454018C18CA
:100A40009D08AE08BF08681579058A059B050CF05E
:100A500064C08A81811161C0DDCFCCACDDACEEAC6D
:100A6000FFACA7019601C701B6010E94C80C2B017B
:100A70003C01C501B4010E94E30D20E030E040E8F4
:100A800050E40E94980E20E030E040E85FE30E94CE
:100A9000C80C9B01AC01C301B2010E94390D9B013E
:100AA000AC01C701B6010E94C70C3B016C01FE01FD
:100AB000E05CFF4FE080F180028113819701A80183
:100AC0000E94930E181614F473018601C701D80111
:100AD0008CAF9DAFAEAFBFAF3AC00CA91DA92EA978
:100AE0003FA91C141D041E041F040CF468CF10162B
:100AF0001106120613060CF099CF00271127980152
:100B00000C191D092E093F09601771078207930709
:100B10000CF062CF2A8121115FCF8CA89DA8AEA8CE
:100B2000BFA881149104A104B10409F096CF88AD47
:100B300099ADAAADBBAD8CAF9DAFAEAFBFAF81E0FD
:100B40001C141D041E041F040CF080E08A833FEF78
:100B5000831A930AA30AB30A8CAA9DAAAEAABFAAB3
:100B60008CAC9DACAEACBFACC501B4010E94B20D63
:100B70006B017C01CB82DC82ED82FE82A5019401B7
:100B800060E074E284E799E40E94390D688F798F00
:100B90008A8F9B8F2A812111FFCE9058688F798F81
:100BA0008A8F9B8FF9CECF92DF92EF92FF92CF93F5
:100BB000DF93EC01688D798D8A8D9B8D9B01AC0153
:100BC0000E94980E6B017C0168A179A18AA19BA16A
:100BD0009B01AC010E94C80C9B01AC01C701B6018E
:100BE0000E94390D0E94AB0D6CAB7DAB8EAB9FAB01
:100BF000CE01DF91CF91FF90EF90DF90CF900C94DA
:100C00007A040F931F93CF93DF93EC018B819C8128
:100C1000AD81BE81892B8A2B8B2B41F0CE010E94A6
:100C20000502882319F0CE010E947A0420E030E00A
:100C3000A901688D798D8A8D9B8D0E94340D81115B
:100C400014C081E00C891D892E893F894889598902
:100C50006A897B89041715072607370709F480E09E
:100C6000DF91CF911F910F91089581E0F9CF089501
:100C70004F925F926F927F928F929F92AF92BF92AC
:100C8000CF92DF92EF92FF92CF93DF93EC016A0154
:100C90007B0120E030E0A901CB01B6010E94340DB8
:100CA00087FF04C0F7FAF094F7F8F09488A099A0B1
:100CB000AAA0BBA0A7019601C501B4010E94340DF2
:100CC000882309F44DC06CA97DA98EA99FA90E9413
:100CD000E30D2B013C01A7019601C501B4010E945F
:100CE000390D9B01AC01C301B2010E94980E0E9414
:100CF000AB0D6CAB7DAB8EAB9FABA701960160E0FB
:100D000070E080E090E40E94390D0E940B0F26E510
:100D10003EE04DE25FE30E94980E20E034E244E7BB
:100D200059E40E94980E68AF79AF8AAF9BAFC8A212
:100D3000D9A2EAA2FBA2E881F9810084F185E02D25
:100D4000CE01DF91CF91FF90EF90DF90CF90BF90D9
:100D5000AF909F908F907F906F905F904F9009948D
:100D6000DF91CF91FF90EF90DF90CF90BF90AF9049
:100D70009F908F907F906F905F904F9008950C940C
:100D8000FC0F1F920F920FB60F9211242F933F93D7
:100D90008F939F93AF93BF9380918E0190918F011A
:100DA000A0919001B091910130918D0123E0230F2A
:100DB0002D3758F50196A11DB11D20938D0180930B
:100DC0008E0190938F01A0939001B0939101809137
:100DD000890190918A01A0918B01B0918C010196BB
:100DE000A11DB11D8093890190938A01A0938B016D
:100DF000B0938C01BF91AF919F918F913F912F91B3
:100E00000F900FBE0F901F90189526E8230F0296A3
:100E1000A11DB11DD2CF1F920F920FB60F921124B8
:100E20002F933F934F935F936F937F938F939F93F2
:100E3000AF93BF93EF93FF9382E991E00E94760115
:100E4000FF91EF91BF91AF919F918F917F916F91A2
:100E50005F914F913F912F910F900FBE0F901F9078
:100E600018951F920F920FB60F9211242F938F9304
:100E70009F93EF93FF93E091A201F091A3018081F2
:100E8000E091A801F091A90182FD1BC090818091A1
:100E9000AB018F5F8F732091AC01821741F0E0911D
:100EA000AB01F0E0EE56FE4F958F8093AB01FF91C2
:100EB000EF919F918F912F910F900FBE0F901F90E8
:100EC00018958081F4CFCF92DF92EF92FF920F932B
:100ED0001F93CF93DF93EC018AE091E0998388839D
:100EE00081E08F83188A198A1A8A1B8A1C8A1D8AB4
:100EF0001E8A1F8A188E198E1A8E1B8E1C8E1D8EAE
:100F00001E8E1F8E18A219A21AA21BA2C12CD12CB0
:100F100080E8E82E8FE3F82ECCA2DDA2EEA2FFA29D
:100F20001B821C821D821E8281E090E09DA78CA7FF
:100F30008FEF8FA718A619A61AA61BA66887498740
:100F400084E08A8785E08B871EA61CAA1DAA1EAA9C
:100F50001FAA18AE19AE1AAE1BAE1CAE1DAE1EAE49
:100F60001FAE8E01005C1F4FF801C082D182E28269
:100F7000F3821A821C861D861E861F86CE010E9461
:100F80006E02B701A601CE010E943806A7019601A4
:100F90006C8D7D8D8E8D9F8D0E94340D882309F17F
:100FA000CC8EDD8EEE8EFF8E80E094E2A4E7B9E475
:100FB000F80180839183A283B3838CA99DA9AEA9F4
:100FC000BFA9181619061A061B065CF4CE01DF919C
:100FD000CF911F910F91FF90EF90DF90CF900C94E5
:100FE000D305DF91CF911F910F91FF90EF90DF908C
:100FF000CF900895E2E9F1E01382128288EE93E047
:10100000A0E0B0E084839583A683B7838AE291E071
:101010009183808385EC90E09587848784EC90E0D1
:101020009787868780EC90E0918B808B81EC90E0B5
:10103000938B828B82EC90E0958B848B86EC90E096
:10104000978B868B118E128E138E148E46E063E082
:1010500088E892E00E94630747E064E084E492E05D
:101060000E946307109243020895CF93DF93CDB798
:10107000DEB768970FB6F894DEBF0FBECDBF789489
:1010800084B5826084BD84B5816084BD85B582608D
:1010900085BD85B5816085BD80916E00816080933E
:1010A0006E001092810080918100826080938100A7
:1010B00080918100816080938100809180008160B7
:1010C000809380008091B10084608093B100809112
:1010D000B00081608093B00080917A00846080933A
:1010E0007A0080917A00826080937A0080917A0001
:1010F000816080937A0080917A00806880937A0082
:101100001092C10020E030E64AEE56E46091A4025D
:101110007091A5028091A6029091A7020E94340DC1
:10112000882349F180E090E6AAEEB6E48093A40219
:101130009093A502A093A602B093A70285E595E53A
:10114000A5E0B2E48093C8029093C902A093CA02BA
:10115000B093CB028091BC029091BD02A091BE02DF
:10116000B091BF02181619061A061B0624F488E867
:1011700092E00E94D30540E050E66AEE76E488E80B
:1011800092E00E94380610929802109299021092F2
:101190009A0210929B0210929C0210929D02109251
:1011A0009E0210929F021092BC021092BD021092F9
:1011B000BE021092BF0210928B0210928C0210920B
:1011C0008D0210928E021092A0021092A102109233
:1011D000A2021092A30220E030E64AEE56E46091AB
:1011E00060027091610280916202909163020E949C
:1011F000340D882349F180E090E6AAEEB6E48093AE
:10120000600290936102A0936202B093630285E54D
:1012100095E5A5E0B2E48093840290938502A093C3
:101220008602B09387028091780290917902A09112
:101230007A02B0917B02181619061A061B0624F4CE
:1012400084E492E00E94D30540E050E66AEE76E442
:1012500084E492E00E9438061092540210925502E3
:101260001092560210925702109258021092590290
:1012700010925A0210925B02109278021092790238
:1012800010927A0210927B0210924702109248024A
:101290001092490210924A0210925C0210925D0272
:1012A00010925E0210925F02E0914302EA3068F40D
:1012B00081E08E0F80934302F0E0EE0FFF1FE15DAF
:1012C000FD4F88E892E091838083E0914302EA3009
:1012D00068F481E08E0F80934302F0E0EE0FFF1F71
:1012E000E15DFD4F84E492E091838083E091A2016F
:1012F000F091A30182E08083E0919E01F0919F0133
:101300001082E091A001F091A10180E18083109210
:10131000AA01E091A601F091A70186E08083E09107
:10132000A401F091A501808180618083E091A401F6
:10133000F091A501808188608083E091A401F09103
:10134000A501808180688083E091A401F091A501CE
:1013500080818F7D80839E01275F3F4F3A8B298B51
:10136000AE01435F5F4F5C8B4B8B2224239482E959
:1013700091E00E945601181619060CF055C282E938
:1013800091E00E9434018D3091F3209186013091DB
:1013900087018A3009F038C22A5B3E4FD9011C927E
:1013A0001D861E861F86188A19861A861B861C862D
:1013B000BA89BF93E989EF93FC89FF932B892F9317
:1013C00048E351E05F934F93A6E4B1E0BF93AF933E
:1013D0000E9485100FB6F894DEBF0FBECDBF0297F6
:1013E00009F03BC18D859E85AF85B88989839A8335
:1013F000AB83BC8389859A85AB85BC858D839E83B1
:10140000AF83B887709043028E010F5F1F4F3FE29A
:10141000C32E32E0D32E812C312C412CB12CA12CA7
:101420007814E1F1D8016D917D918D919D918D019F
:10143000F601E190F1906F01D70150962D913D9109
:101440004D915C915397621B730B840B950B97FF27
:1014500007C090958095709561957F4F8F4F9F4FF6
:101460000E94E30DF701248D358D468D578D0E9426
:10147000390D662E972E7C01232D342D4B2D5A2DA0
:101480000E94930E181624F0632C942CEB2CFA2C4B
:101490008394362C492CBE2CAF2CC2CF20E030E0F8
:1014A000A901632D742D8B2D9A2D0E94930E181671
:1014B0000CF0CCC0912C80914302981608F0C6C065
:1014C000092D10E0F801EE0FFF1FEE0FFF1F21E0C6
:1014D00030E02C0F3D1FE20FF31FC080D180E2806F
:1014E000F380000F111FF801E15DFD4F4081518134
:1014F0005E8B4D8BFA0180899189A289B389A701FE
:101500009601281B390B4A0B5B0BCA01B9010E94DB
:10151000E30D232D342D4B2D5A2D0E94390D562EBF
:10152000672E782E892EED89FE8984899589A68972
:10153000B789C816D906EA06FB0669F0DF01C48A36
:10154000D58AE68AF78A0190F081E02D0084F18542
:10155000E02DCD010995F801E15DFD4F008111817C
:10156000F801208D318D428D538D652D762D872D7F
:10157000982D0E94340D882309F440C0D8015C9650
:101580002D913D914D915C915F972D8B3E8B4F8BB3
:10159000588F69017A01F7FAF094F7F8F094A701EF
:1015A0009601652D762D872D982D0E94340D87FD8F
:1015B00010C02D893E894F89588D652D762D872D38
:1015C000982D0E94930E1816DCF0C52CD62CE72C13
:1015D000F82C20E030E0A901C701B6010E94340DCB
:1015E000811113C0F8011382148215821682D8016A
:1015F0005896CD92DD92ED92FC925B9793945BCFDF
:10160000CD88DE88EF88F88CE4CFA701960160E0F2
:1016100074E284E799E40E94390D9F770E94B20D2D
:10162000D80113966D937D938D939C931697882480
:10163000839420E030E0A901C701B6010E94930E17
:1016400018160CF0812CF8018282D1CF20928801EB
:1016500010928701109286018ACE809146018F7D7B
:10166000803509F07DC01092880180914701813357
:10167000D1F519821A821B821C82E1E0F0E0EC0FA6
:10168000FD1FFF93EF9322E431E03F932F9388E413
:1016900091E09F938F930E9485100F900F900F9071
:1016A0000F900F900F90019799F689819A81AB81E5
:1016B000BC8140919C0250919D0260919E0270916C
:1016C0009F0284179507A607B70711F280939C0223
:1016D00090939D02A0939E02B0939F0288E892E0AF
:1016E0000E947A04B5CF823309F0B2CF19821A82F0
:1016F0001B821C82E1E0F0E0EC0FFD1FFF93EF93F3
:1017000022E431E03F932F9388E491E09F938F93FD
:101710000E9485100F900F900F900F900F900F90D8
:10172000019709F095CF89819A81AB81BC81409165
:1017300058025091590260915A0270915B028417CD
:101740009507A607B70709F483CF809358029093B3
:101750005902A0935A02B0935B0284E492E0C0CF96
:101760008A3509F075CF1092980210929902109262
:101770009A0210929B0210929C0210929D0210926B
:101780009E0210929F021092BC021092BD02109213
:10179000BE021092BF0210928B0210928C02109225
:1017A0008D0210928E021092A0021092A10210924D
:1017B000A2021092A30210925402109255021092AB
:1017C000560210925702109258021092590210922B
:1017D0005A0210925B0210927802109279021092D3
:1017E0007A0210927B0210924702109248021092E5
:1017F000490210924A0210925C0210925D0210920D
:101800005E0210925F0224CF2F3331050CF020CFFF
:10181000A9014F5F5F4F50938701409386012A5B78
:101820003E4FF9018083A3CD80918801882349F13F
:1018300010E080914302181708F055C0E12FF0E046
:10184000EE0FFF1FE15DFD4F0190F081E02D448917
:1018500055896689778980899189A289B3894817D2
:1018600059076A077B0759F083819481A581B68166
:10187000892B8A2B8B2B19F0CF010E9405021F5F49
:10188000D8CF40919C0250919D0260919E02709130
:101890009F028091980290919902A0919A02B09132
:1018A0009B02481759076A077B0721F088E892E0F6
:1018B0000E940106409158025091590260915A02CB
:1018C00070915B028091540290915502A091560252
:1018D000B0915702481759076A077B0721F084E443
:1018E00092E00E94010680E090E0892B09F43DCD52
:1018F0000E946201882309F438CD0E94000035CD92
:10190000052E97FB1EF400940E94970C57FD07D0FC
:101910000E94A50C07FC03D04EF40C94970C509534
:101920004095309521953F4F4F4F5F4F08959095CB
:101930008095709561957F4F8F4F9F4F0895EE0F63
:10194000FF1F0590F491E02D0994A1E21A2EAA1B25
:10195000BB1BFD010DC0AA1FBB1FEE1FFF1FA2175F
:10196000B307E407F50720F0A21BB30BE40BF50B5C
:10197000661F771F881F991F1A9469F760957095E5
:10198000809590959B01AC01BD01CF010895505801
:10199000BB27AA270E94DF0C0C94590E0E944B0E05
:1019A00038F00E94520E20F039F49F3F19F426F4CB
:1019B0000C94480E0EF4E095E7FB0C94420EE92FD0
:1019C0000E946A0E58F3BA176207730784079507D7
:1019D00020F079F4A6F50C948C0E0EF4E0950B2E05
:1019E000BA2FA02D0B01B90190010C01CA01A00171
:1019F0001124FF27591B99F0593F50F4503E68F1CC
:101A00001A16F040A22F232F342F4427585FF3CF0C
:101A1000469537952795A795F0405395C9F77EF4DD
:101A20001F16BA0B620B730B840BBAF09150A1F026
:101A3000FF0FBB1F661F771F881FC2F70EC0BA0FAC
:101A4000621F731F841F48F4879577956795B79534
:101A5000F7959E3F08F0B0CF9395880F08F099272F
:101A6000EE0F9795879508950E941E0E08F481E069
:101A700008950E944D0D0C94590E0E94520E58F07C
:101A80000E944B0E40F029F45F3F29F00C94420E67
:101A900051110C948D0E0C94480E0E946A0E68F33E
:101AA0009923B1F3552391F3951B550BBB27AA2717
:101AB00062177307840738F09F5F5F4F220F331F51
:101AC000441FAA1FA9F335D00E2E3AF0E0E832D019
:101AD00091505040E695001CCAF72BD0FE2F29D01C
:101AE000660F771F881FBB1F261737074807AB07EE
:101AF000B0E809F0BB0B802DBF01FF2793585F4F63
:101B00003AF09E3F510578F00C94420E0C948D0EE5
:101B10005F3FE4F3983ED4F3869577956795B79544
:101B2000F7959F5FC9F7880F911D9695879597F94F
:101B30000895E1E0660F771F881FBB1F62177307C8
:101B40008407BA0720F0621B730B840BBA0BEE1FDD
:101B500088F7E09508950E94B20D6894B1110C9435
:101B60008D0E08950E94720E88F09F5798F0B92F3D
:101B70009927B751B0F0E1F0660F771F881F991FC2
:101B80001AF0BA95C9F714C0B13091F00E948C0ECA
:101B9000B1E008950C948C0E672F782F8827B85FDA
:101BA00039F0B93FCCF3869577956795B395D9F71A
:101BB0003EF490958095709561957F4F8F4F9F4F24
:101BC0000895E89409C097FB3EF490958095709530
:101BD00061957F4F8F4F9F4F9923A9F0F92F96E979
:101BE000BB279395F695879577956795B795F111EE
:101BF000F8CFFAF4BB0F11F460FF1BC06F5F7F4F8B
:101C00008F4F9F4F16C0882311F096E911C077239C
:101C100021F09EE8872F762F05C0662371F096E8A5
:101C2000862F70E060E02AF09A95660F771F881F74
:101C3000DAF7880F9695879597F90895990F000818
:101C4000550FAA0BE0E8FEEF16161706E807F9078E
:101C5000C0F012161306E407F50798F0621B730B29
:101C6000840B950B39F40A2661F0232B242B252BAA
:101C700021F408950A2609F4A140A6958FEF811D4D
:101C8000811D089597F99F6780E870E060E00895EE
:101C90009FEF80EC089500240A9416161706180684
:101CA0000906089500240A94121613061406050660
:101CB0000895092E0394000C11F4882352F0BB0FF1
:101CC00040F4BF2B11F460FF04C06F5F7F4F8F4F54
:101CD0009F4F089557FD9058440F551F59F05F3F8F
:101CE00071F04795880F97FB991F61F09F3F79F03E
:101CF00087950895121613061406551FF2CF4695C0
:101D0000F1DF08C0161617061806991FF1CF869541
:101D10007105610508940895E894BB276627772725
:101D2000CB0197F908950E941E0E08F48FEF0895D5
:101D30000E94AB0E0C94590E0E944B0E38F00E947C
:101D4000520E20F0952311F00C94420E0C94480E84
:101D500011240C948D0E0E946A0E70F3959FC1F3AE
:101D6000950F50E0551F629FF001729FBB27F00D49
:101D7000B11D639FAA27F00DB11DAA1F649F66279E
:101D8000B00DA11D661F829F2227B00DA11D621FED
:101D9000739FB00DA11D621F839FA00D611D221FA7
:101DA000749F3327A00D611D231F849F600D211D8B
:101DB000822F762F6A2F11249F5750409AF0F1F00E
:101DC00088234AF0EE0FFF1FBB1F661F771F881F77
:101DD00091505040A9F79E3F510580F00C94420E5F
:101DE0000C948D0E5F3FE4F3983ED4F3869577957F
:101DF0006795B795F795E7959F5FC1F7FE2B880F1D
:101E0000911D9695879597F9089519F416F40C94F9
:101E1000480E0C944B0F0E94720EB8F39923C9F32D
:101E2000B6F39F57550B87FF0E94590F0024A0E679
:101E300040EA900180585695979528F4805C660F8B
:101E4000771F881F20F026173707480730F4621BDA
:101E5000730B840B202931294A2BA69517940794DC
:101E6000202531254A2758F7660F771F881F20F055
:101E700026173707480730F4620B730B840B200DCD
:101E8000311D411DA09581F7B901842F9158880F0C
:101E90009695879508959F3F31F0915020F487954E
:101EA00077956795B795880F911D9695879597F9C2
:101EB000089591505040660F771F881FD2F70895FC
:101EC0000F931F93CF93DF938230910510F482E03C
:101ED00090E0E091CE02F091CF0230E020E0B0E05F
:101EE000A0E0309799F42115310509F44AC0281B68
:101EF000390B24303105D8F58A819B816115710534
:101F000089F1FB0193838283FE0111C040815181DD
:101F10000281138148175907E0F04817590799F4CF
:101F2000109761F012960C93129713961C933296A9
:101F3000CF01DF91CF911F910F9108950093CE02B1
:101F40001093CF02F4CF2115310551F042175307FA
:101F500038F0A901DB019A01BD01DF01F801C1CF11
:101F6000EF01F9CF9093CF028093CE02CDCFFE0147
:101F7000E20FF31F81939193225031093983288313
:101F8000D7CF2091CC023091CD02232B41F4209168
:101F90000201309103013093CD022093CC022091B5
:101FA0000001309101012115310541F42DB73EB7F3
:101FB0004091040150910501241B350BE091CC02A6
:101FC000F091CD02E217F307A0F42E1B3F0B281768
:101FD000390778F0AC014E5F5F4F2417350748F0A2
:101FE0004E0F5F1F5093CD024093CC02819391938B
:101FF0009FCFF0E0E0E09CCFCF93DF930097E9F034
:10200000FC01329713821282A091CE02B091CF02CE
:10201000ED0130E020E01097A1F420813181820FA2
:10202000931F2091CC023091CD022817390709F077
:1020300061C0F093CD02E093CC02DF91CF9108957F
:10204000EA01CE17DF07E8F54A815B819E01411561
:102050005105B1F7E901FB83EA8349915991C40F16
:10206000D51FEC17FD0761F4808191810296840FE2
:10207000951FE90199838883828193819B838A8359
:10208000F0E0E0E012968D919C9113970097B9F5DE
:102090002D913C911197CD010296820F931F2091B3
:1020A000CC023091CD022817390739F6309751F517
:1020B0001092CF021092CE02B093CD02A093CC0228
:1020C000BCCFD383C28340815181840F951FC81731
:1020D000D90761F44E5F5F4F88819981480F591F7E
:1020E000518340838A819B819383828321153105AB
:1020F00009F0B0CFF093CF02E093CE029ECFFD0166
:10210000DC01C0CF13821282D7CFAEE0B0E0EBE8A3
:10211000F0E10C94A91385E08C838B899C899A83C8
:102120008983AE01495E5F4F6D897E89CE0101963C
:102130000E9429122E96E2E00C94C51320FD09C0DE
:10214000FC0123FD05C022FF02C07383628351831B
:102150004083089544FD17C046FD1DC0DB01FC010E
:10216000AA0FBB1FEE1FFF1F1094D1F76A0F7B1F32
:102170008E1F9F1F660F771F881F991F620F711D8B
:10218000811D911D089533E0660F771F881F991FE9
:102190003150D1F7F3CF34E0F7CF0F931F93CF93A4
:1021A000DF938C01C8010E944213EC0197FD08C027
:1021B0000E942E13892BB1F7B801CE010E947E1325
:1021C000CE01DF91CF911F910F9108958F929F9231
:1021D000AF92BF92EF92FF920F931F93CF93DF9333
:1021E0008C01D62F7A01B22E0E9442139C01332714
:1021F0002B32310529F02D323105A9F46894B7F856
:10220000D15061F480E0DF91CF911F910F91FF9049
:10221000EF90BF90AF909F908F900895C8010E945B
:10222000421397FDEFCFCB2DCD7F2B2D2073F9F4EB
:102230008033E9F4AA24AA94AD0E89F0C8010E9463
:10224000421397FD0CC0282F2F7D283561F4C264FE
:10225000D25029F0C8010E94421397FF08C0812C78
:10226000912C54011BC0B6FE2BC0C260DA2D812C0C
:10227000912C540120ED280F283028F1C4FD09C00D
:102280002A3008F1C6FF05C02F7D3FEE320F3630F1
:10229000C8F0B8010E947E13C1FFB4CFC7FF08C0C9
:1022A000B094A09490948094811C911CA11CB11CAA
:1022B0002C2FB501A401C7010E949E1081E0A3CF7D
:1022C000C261D4CF27504C2FC501B4010E94AA107F
:1022D0004B015C01C260D15009F3C8010E94421356
:1022E00097FFC8CFD9CFA0E2B0E0E9E7F1E10C94C5
:1022F0009E135C01962E7A01CE0101966C0180E25C
:10230000F60111928A95E9F7F501B381890130E070
:1023100020E0712C812CA0E041E050E0F801B3FDF9
:102320008591B3FF8191982F8F01811107C010E033
:1023300000E0C801A096EDE00C94BA138E3519F4B4
:102340002115310541F1A21713064CF48D3549F1E1
:102350008D3229F4811006C0882483941DC0882002
:1023600009F464C0E92FE695E695E695EC0DFD2DA0
:10237000F11D892F8770BA0101C0660F8A95EAF7AF
:102380008081682B6083791651F0971510F49F5F58
:10239000E9CF9150E7CFA1E02F5F3F4FBFCF812C16
:1023A000FBCF882019F08E8180628E83AA2359F09A
:1023B000F6019E012F5D3F4F80818095808331968D
:1023C000E217F307C9F788248394C5010E944213DA
:1023D00097FD16C0E82FE695E695E695EC0DFD2DE8
:1023E000F11D208130E0AC014770552702C03595C2
:1023F00027954A95E2F720FD06C0B5010E947E139D
:10240000882069F094CFE114F10429F0F70180836A
:10241000C70101967C019A94812C9110D6CFE114CA
:10242000F10409F486CFF701108283CFE82FE695F7
:10243000E695E695EC0DFD2DF11D982F9770BA01EC
:1024400001C0660F9A95EAF79081692B6083782E18
:10245000A3CFB0E0A0E0EFE2F2E10C949C136C019A
:10246000EB015A01FC0117821682512CF601E38020
:10247000FE01E3FC8591E3FE8191182FEF01882393
:10248000E9F090E00E942E13892B21F0C6010E94F2
:10249000CD10ECCF153241F4FE01E3FC1591E3FEC3
:1024A0001191EF01153269F4C6010E94421397FDA4
:1024B0008EC01817D9F2B6010E947E13852D90E0C8
:1024C0008AC000E01A3231F4E3FC1591E3FE119169
:1024D000EF0101E0F12C20ED210F2A3048F101FF3E
:1024E00037C0FF2059F31836B1F11C3609F43DC04E
:1024F000112321F3612F70E088E690E00E943713EA
:10250000892BE1F2912C812C00FD06C0F501808021
:102510009180C50102965C011E3679F5F60146816F
:10252000578170E060E0202FC4010E949E109ECF72
:1025300002606F2D70E090E080E040E20E94AA10FF
:10254000F62EFE01E3FC1591E3FE1191EF01C3CFDE
:10255000FF24FA94C8CFFE01E3FC1591E3FE11912C
:10256000EF01183609F0C4CF08600460FE01E3FCF7
:102570001591E3FE1191EF01BBCF1336C1F401FDBC
:1025800002C0FF24F394C6010E94421397FD1FC0AE
:102590008114910429F0F4018083C40101964C0157
:1025A000FA94F110F0CF00FD61CF53945FCF1B354B
:1025B000B9F49E01A4016F2DC6010E947311EC01B4
:1025C000892B89F7F6018381807309F477CF8FEF28
:1025D0009FEF511073CFCDB7DEB7EFE00C94B81377
:1025E000C6010E94CD1097FDF2CF1F36A9F130F43D
:1025F000143641F0193639F0006405C01337B9F0CC
:102600001537D1F70062202FA4016F2DC6010E945B
:10261000E6108111C8CFD6CF8114910429F0F401BE
:102620006082C40101964C01FA94FF2071F0C6014A
:102630000E9442133C0197FD08C00E942E13892B73
:1026400059F3B601C3010E947E138114910409F469
:10265000AACFF4011082A7CF0061D5CF91110C94BD
:102660009613803219F089508550C8F70895FC01FF
:102670000590061621F00020D9F7C0010895319782
:10268000CF010895CF93DF93EC012B8120FF1AC077
:1026900026FF0CC02F7B2B838E819F8101969F8309
:1026A0008E838A8190E0DF91CF91089522FF18C038
:1026B000E881F9818081082E000C990B009729F49C
:1026C00020622B838FEF9FEFEECF3196F983E88363
:1026D0002E813F812F5F3F4F3F832E839927E3CF8A
:1026E000EA85FB85099597FFF3CF2B81019621F0B1
:1026F00080E2822B8B83E6CF80E1FBCFFB0123813D
:1027000020FF11C026FD0FC08F3F980771F0828314
:102710002F7D20642383268137812150310937831F
:102720002683992708958FEF9FEF0895992788278B
:1027300008952F923F924F925F926F927F928F9265
:102740009F92AF92BF92CF92DF92EF92FF920F9340
:102750001F93CF93DF93CDB7DEB7CA1BDB0B0FB64A
:10276000F894DEBF0FBECDBF09942A883988488807
:102770005F846E847D848C849B84AA84B984C8849D
:10278000DF80EE80FD800C811B81AA81B981CE0F94
:10279000D11D0FB6F894DEBF0FBECDBFED01089579
:0427A000F894FFCFDB
:1027A4000000D0028000000000009C026E02370688
:1027B400BF067A04FC033A04E603B40393035F03FD
:1027C4003E03E802B902000000009801F800250168
:1027D400E501560134014801503120256C64205034
:0627E4003220256C6400A8
:00000001FF
